{
  "_format": "hh-sol-artifact-1",
  "contractName": "ApproveSpend",
  "sourceName": "ethereum/contracts/ApproveSpend.sol",
  "abi": [
    {
      "inputs": [],
      "stateMutability": "nonpayable",
      "type": "constructor"
    },
    {
      "inputs": [],
      "name": "DAI",
      "outputs": [
        {
          "internalType": "address",
          "name": "",
          "type": "address"
        }
      ],
      "stateMutability": "view",
      "type": "function"
    },
    {
      "inputs": [],
      "name": "WETH9",
      "outputs": [
        {
          "internalType": "address",
          "name": "",
          "type": "address"
        }
      ],
      "stateMutability": "view",
      "type": "function"
    },
    {
      "inputs": [
        {
          "internalType": "uint256",
          "name": "amountIn",
          "type": "uint256"
        }
      ],
      "name": "approveDAISwap",
      "outputs": [],
      "stateMutability": "nonpayable",
      "type": "function"
    },
    {
      "inputs": [
        {
          "internalType": "uint256",
          "name": "amountIn",
          "type": "uint256"
        }
      ],
      "name": "approveWETH9Swap",
      "outputs": [],
      "stateMutability": "nonpayable",
      "type": "function"
    },
    {
      "inputs": [],
      "name": "owner",
      "outputs": [
        {
          "internalType": "address",
          "name": "",
          "type": "address"
        }
      ],
      "stateMutability": "view",
      "type": "function"
    },
    {
      "inputs": [],
      "name": "poolFee",
      "outputs": [
        {
          "internalType": "uint24",
          "name": "",
          "type": "uint24"
        }
      ],
      "stateMutability": "view",
      "type": "function"
    },
    {
      "inputs": [],
      "name": "rebalance",
      "outputs": [],
      "stateMutability": "nonpayable",
      "type": "function"
    },
    {
      "inputs": [],
      "name": "swapAllDAIForWETH9",
      "outputs": [
        {
          "internalType": "uint256",
          "name": "amountOut",
          "type": "uint256"
        }
      ],
      "stateMutability": "nonpayable",
      "type": "function"
    },
    {
      "inputs": [],
      "name": "swapAllWETH9ForDAI",
      "outputs": [
        {
          "internalType": "uint256",
          "name": "amountOut",
          "type": "uint256"
        }
      ],
      "stateMutability": "nonpayable",
      "type": "function"
    },
    {
      "inputs": [
        {
          "internalType": "uint256",
          "name": "amountIn",
          "type": "uint256"
        }
      ],
      "name": "swapExactInputSingle",
      "outputs": [
        {
          "internalType": "uint256",
          "name": "amountOut",
          "type": "uint256"
        }
      ],
      "stateMutability": "nonpayable",
      "type": "function"
    },
    {
      "inputs": [],
      "name": "swapRouter",
      "outputs": [
        {
          "internalType": "contract ISwapRouter",
          "name": "",
          "type": "address"
        }
      ],
      "stateMutability": "view",
      "type": "function"
    },
    {
      "inputs": [
        {
          "internalType": "uint256",
          "name": "amount",
          "type": "uint256"
        }
      ],
      "name": "transferFrom",
      "outputs": [],
      "stateMutability": "nonpayable",
      "type": "function"
    },
    {
      "inputs": [
        {
          "internalType": "address",
          "name": "erc20Token",
          "type": "address"
        }
      ],
      "name": "withdrawAll",
      "outputs": [],
      "stateMutability": "nonpayable",
      "type": "function"
    },
    {
      "inputs": [],
      "name": "withdrawAllDAI",
      "outputs": [],
      "stateMutability": "nonpayable",
      "type": "function"
    }
  ],
  "bytecode": "0x60a060405234801561001057600080fd5b50600073e592427a0aece92de3edee1f18e0157c0586156490508073ffffffffffffffffffffffffffffffffffffffff1660808173ffffffffffffffffffffffffffffffffffffffff1660601b81525050336000806101000a81548173ffffffffffffffffffffffffffffffffffffffff021916908373ffffffffffffffffffffffffffffffffffffffff1602179055505060805160601c6114076100ea600039600081816103cc015281816104be01528181610630015281816107a3015281816107cd0152818161093e0152610a1001526114076000f3fe608060405234801561001057600080fd5b50600436106100ea5760003560e01c80637d7c2a1c1161008c578063be1e5e6311610066578063be1e5e6314610201578063c31c9c071461021d578063e0bab4c41461023b578063fa09e63014610259576100ea565b80637d7c2a1c146101bb5780638da5cb5b146101c5578063a335c008146101e3576100ea565b80634aa4a4fc116100c85780634aa4a4fc1461013557806373bd43ad1461015357806377a11f7e1461018357806377b6e7cf1461019f576100ea565b8063089fe6aa146100ef5780632828b4931461010d5780633c61a02d1461012b575b600080fd5b6100f7610275565b60405161010491906111fc565b60405180910390f35b61011561027b565b6040516101229190611217565b60405180910390f35b6101336102b4565b005b61013d610378565b60405161014a91906110ca565b60405180910390f35b61016d60048036038101906101689190610e16565b610390565b60405161017a9190611217565b60405180910390f35b61019d60048036038101906101989190610e16565b61056f565b005b6101b960048036038101906101b49190610e16565b610616565b005b6101c3610658565b005b6101cd61072c565b6040516101da91906110ca565b60405180910390f35b6101eb610750565b6040516101f89190611217565b60405180910390f35b61021b60048036038101906102169190610e16565b610789565b005b6102256107cb565b6040516102329190611145565b60405180910390f35b6102436107ef565b60405161025091906110ca565b60405180910390f35b610273600480360381019061026e9190610dc4565b610807565b005b610bb881565b60006102af73c7ad46e0b8a400bb3c915120d284aafba8fc473573c778417e063141139fce010982780140aa0cd5ab6108aa565b905090565b600073c7ad46e0b8a400bb3c915120d284aafba8fc473573ffffffffffffffffffffffffffffffffffffffff166370a08231306040518263ffffffff1660e01b815260040161030391906110ca565b60206040518083038186803b15801561031b57600080fd5b505afa15801561032f573d6000803e3d6000fd5b505050506040513d601f19601f820116820180604052508101906103539190610e3f565b905061037573c7ad46e0b8a400bb3c915120d284aafba8fc4735303384610ac3565b50565b73c778417e063141139fce010982780140aa0cd5ab81565b60006103b273c7ad46e0b8a400bb3c915120d284aafba8fc4735333085610ac3565b6103f173c7ad46e0b8a400bb3c915120d284aafba8fc47357f000000000000000000000000000000000000000000000000000000000000000084610c1b565b600060405180610100016040528073c7ad46e0b8a400bb3c915120d284aafba8fc473573ffffffffffffffffffffffffffffffffffffffff16815260200173c778417e063141139fce010982780140aa0cd5ab73ffffffffffffffffffffffffffffffffffffffff168152602001610bb862ffffff1681526020013373ffffffffffffffffffffffffffffffffffffffff1681526020016377359400815260200184815260200160008152602001600073ffffffffffffffffffffffffffffffffffffffff1681525090507f000000000000000000000000000000000000000000000000000000000000000073ffffffffffffffffffffffffffffffffffffffff1663414bf389826040518263ffffffff1660e01b815260040161051591906111e0565b602060405180830381600087803b15801561052f57600080fd5b505af1158015610543573d6000803e3d6000fd5b505050506040513d601f19601f820116820180604052508101906105679190610e3f565b915050919050565b73c7ad46e0b8a400bb3c915120d284aafba8fc473573ffffffffffffffffffffffffffffffffffffffff166323b872dd3330846040518463ffffffff1660e01b81526004016105c0939291906110e5565b602060405180830381600087803b1580156105da57600080fd5b505af11580156105ee573d6000803e3d6000fd5b505050506040513d601f19601f820116820180604052508101906106129190610ded565b5050565b61065573c778417e063141139fce010982780140aa0cd5ab7f000000000000000000000000000000000000000000000000000000000000000083610c1b565b50565b60008054906101000a900473ffffffffffffffffffffffffffffffffffffffff1673ffffffffffffffffffffffffffffffffffffffff163373ffffffffffffffffffffffffffffffffffffffff16146106e6576040517f08c379a00000000000000000000000000000000000000000000000000000000081526004016106dd906111c0565b60405180910390fd5b600160001461072a576040517f08c379a000000000000000000000000000000000000000000000000000000000815260040161072190611180565b60405180910390fd5b565b60008054906101000a900473ffffffffffffffffffffffffffffffffffffffff1681565b600061078473c778417e063141139fce010982780140aa0cd5ab73c7ad46e0b8a400bb3c915120d284aafba8fc47356108aa565b905090565b6107c873c7ad46e0b8a400bb3c915120d284aafba8fc47357f000000000000000000000000000000000000000000000000000000000000000083610c1b565b50565b7f000000000000000000000000000000000000000000000000000000000000000081565b73c7ad46e0b8a400bb3c915120d284aafba8fc473581565b600081905060008173ffffffffffffffffffffffffffffffffffffffff166370a08231306040518263ffffffff1660e01b815260040161084791906110ca565b60206040518083038186803b15801561085f57600080fd5b505afa158015610873573d6000803e3d6000fd5b505050506040513d601f19601f820116820180604052508101906108979190610e3f565b90506108a583303384610ac3565b505050565b6000808373ffffffffffffffffffffffffffffffffffffffff166370a08231306040518263ffffffff1660e01b81526004016108e691906110ca565b60206040518083038186803b1580156108fe57600080fd5b505afa158015610912573d6000803e3d6000fd5b505050506040513d601f19601f820116820180604052508101906109369190610e3f565b9050610963847f000000000000000000000000000000000000000000000000000000000000000083610c1b565b60006040518061010001604052808673ffffffffffffffffffffffffffffffffffffffff1681526020018573ffffffffffffffffffffffffffffffffffffffff168152602001610bb862ffffff1681526020013073ffffffffffffffffffffffffffffffffffffffff1681526020016064426109df9190611259565b815260200183815260200160008152602001600073ffffffffffffffffffffffffffffffffffffffff1681525090507f000000000000000000000000000000000000000000000000000000000000000073ffffffffffffffffffffffffffffffffffffffff1663414bf389826040518263ffffffff1660e01b8152600401610a6791906111e0565b602060405180830381600087803b158015610a8157600080fd5b505af1158015610a95573d6000803e3d6000fd5b505050506040513d601f19601f82011682018060405250810190610ab99190610e3f565b9250505092915050565b6000808573ffffffffffffffffffffffffffffffffffffffff166323b872dd60e01b868686604051602401610afa939291906110e5565b604051602081830303815290604052907bffffffffffffffffffffffffffffffffffffffffffffffffffffffff19166020820180517bffffffffffffffffffffffffffffffffffffffffffffffffffffffff8381831617835250505050604051610b6491906110b3565b6000604051808303816000865af19150503d8060008114610ba1576040519150601f19603f3d011682016040523d82523d6000602084013e610ba6565b606091505b5091509150818015610bd45750600081511480610bd3575080806020019051810190610bd29190610ded565b5b5b610c13576040517f08c379a0000000000000000000000000000000000000000000000000000000008152600401610c0a906111a0565b60405180910390fd5b505050505050565b6000808473ffffffffffffffffffffffffffffffffffffffff1663095ea7b360e01b8585604051602401610c5092919061111c565b604051602081830303815290604052907bffffffffffffffffffffffffffffffffffffffffffffffffffffffff19166020820180517bffffffffffffffffffffffffffffffffffffffffffffffffffffffff8381831617835250505050604051610cba91906110b3565b6000604051808303816000865af19150503d8060008114610cf7576040519150601f19603f3d011682016040523d82523d6000602084013e610cfc565b606091505b5091509150818015610d2a5750600081511480610d29575080806020019051810190610d289190610ded565b5b5b610d69576040517f08c379a0000000000000000000000000000000000000000000000000000000008152600401610d6090611160565b60405180910390fd5b5050505050565b600081359050610d7f8161138c565b92915050565b600081519050610d94816113a3565b92915050565b600081359050610da9816113ba565b92915050565b600081519050610dbe816113ba565b92915050565b600060208284031215610dd657600080fd5b6000610de484828501610d70565b91505092915050565b600060208284031215610dff57600080fd5b6000610e0d84828501610d85565b91505092915050565b600060208284031215610e2857600080fd5b6000610e3684828501610d9a565b91505092915050565b600060208284031215610e5157600080fd5b6000610e5f84828501610daf565b91505092915050565b610e71816112af565b82525050565b610e80816112af565b82525050565b6000610e9182611232565b610e9b818561123d565b9350610eab81856020860161132a565b80840191505092915050565b610ec081611306565b82525050565b6000610ed3600283611248565b91507f53410000000000000000000000000000000000000000000000000000000000006000830152602082019050919050565b6000610f13601383611248565b91507f4e6f7420696d706c656d656e74656420796574000000000000000000000000006000830152602082019050919050565b6000610f53600383611248565b91507f53544600000000000000000000000000000000000000000000000000000000006000830152602082019050919050565b6000610f93600983611248565b91507f6e6f74206f776e657200000000000000000000000000000000000000000000006000830152602082019050919050565b61010082016000820151610fdd6000850182610e68565b506020820151610ff06020850182610e68565b5060408201516110036040850182611077565b5060608201516110166060850182610e68565b5060808201516110296080850182611095565b5060a082015161103c60a0850182611095565b5060c082015161104f60c0850182611095565b5060e082015161106260e0850182611068565b50505050565b611071816112cd565b82525050565b611080816112ed565b82525050565b61108f816112ed565b82525050565b61109e816112fc565b82525050565b6110ad816112fc565b82525050565b60006110bf8284610e86565b915081905092915050565b60006020820190506110df6000830184610e77565b92915050565b60006060820190506110fa6000830186610e77565b6111076020830185610e77565b61111460408301846110a4565b949350505050565b60006040820190506111316000830185610e77565b61113e60208301846110a4565b9392505050565b600060208201905061115a6000830184610eb7565b92915050565b6000602082019050818103600083015261117981610ec6565b9050919050565b6000602082019050818103600083015261119981610f06565b9050919050565b600060208201905081810360008301526111b981610f46565b9050919050565b600060208201905081810360008301526111d981610f86565b9050919050565b6000610100820190506111f66000830184610fc6565b92915050565b60006020820190506112116000830184611086565b92915050565b600060208201905061122c60008301846110a4565b92915050565b600081519050919050565b600081905092915050565b600082825260208201905092915050565b6000611264826112fc565b915061126f836112fc565b9250827fffffffffffffffffffffffffffffffffffffffffffffffffffffffffffffffff038211156112a4576112a361135d565b5b828201905092915050565b60006112ba826112cd565b9050919050565b60008115159050919050565b600073ffffffffffffffffffffffffffffffffffffffff82169050919050565b600062ffffff82169050919050565b6000819050919050565b600061131182611318565b9050919050565b6000611323826112cd565b9050919050565b60005b8381101561134857808201518184015260208101905061132d565b83811115611357576000848401525b50505050565b7f4e487b7100000000000000000000000000000000000000000000000000000000600052601160045260246000fd5b611395816112af565b81146113a057600080fd5b50565b6113ac816112c1565b81146113b757600080fd5b50565b6113c3816112fc565b81146113ce57600080fd5b5056fea2646970667358221220878e01fbfdc0e5c6927c78816bc2fd909ad94753537618ede4744908b44a188c64736f6c63430008000033",
  "linkReferences": {},
  "deployedLinkReferences": {}
}