{
  "_format": "hh-sol-artifact-1",
  "contractName": "DeepBalancerPool",
  "sourceName": "contracts/DeepBalancerPool.sol",
  "abi": [
    {
      "inputs": [
        {
          "internalType": "address",
          "name": "dai_address",
          "type": "address"
        },
        {
          "internalType": "address",
          "name": "weth9_address",
          "type": "address"
        },
        {
          "internalType": "address",
          "name": "wbtc_address",
          "type": "address"
        },
        {
          "internalType": "address",
          "name": "swap_router_address",
          "type": "address"
        }
      ],
      "stateMutability": "nonpayable",
      "type": "constructor"
    },
    {
      "anonymous": false,
      "inputs": [
        {
          "indexed": true,
          "internalType": "address",
          "name": "previousOwner",
          "type": "address"
        },
        {
          "indexed": true,
          "internalType": "address",
          "name": "newOwner",
          "type": "address"
        }
      ],
      "name": "OwnershipTransferred",
      "type": "event"
    },
    {
      "anonymous": false,
      "inputs": [
        {
          "indexed": false,
          "internalType": "address",
          "name": "account",
          "type": "address"
        }
      ],
      "name": "Paused",
      "type": "event"
    },
    {
      "anonymous": false,
      "inputs": [
        {
          "indexed": false,
          "internalType": "address",
          "name": "account",
          "type": "address"
        }
      ],
      "name": "Unpaused",
      "type": "event"
    },
    {
      "inputs": [],
      "name": "DAI",
      "outputs": [
        {
          "internalType": "address",
          "name": "",
          "type": "address"
        }
      ],
      "stateMutability": "view",
      "type": "function"
    },
    {
      "inputs": [],
      "name": "WBTC",
      "outputs": [
        {
          "internalType": "address",
          "name": "",
          "type": "address"
        }
      ],
      "stateMutability": "view",
      "type": "function"
    },
    {
      "inputs": [],
      "name": "WETH9",
      "outputs": [
        {
          "internalType": "address",
          "name": "",
          "type": "address"
        }
      ],
      "stateMutability": "view",
      "type": "function"
    },
    {
      "inputs": [
        {
          "internalType": "address",
          "name": "tokenAddress",
          "type": "address"
        },
        {
          "internalType": "uint256",
          "name": "tokenQuantity",
          "type": "uint256"
        }
      ],
      "name": "deposit",
      "outputs": [],
      "stateMutability": "nonpayable",
      "type": "function"
    },
    {
      "inputs": [
        {
          "internalType": "uint256",
          "name": "PRICEDAIinUSD",
          "type": "uint256"
        },
        {
          "internalType": "uint256",
          "name": "PRICEWBTCinUSD",
          "type": "uint256"
        },
        {
          "internalType": "uint256",
          "name": "PRICEWETH9IinUSD",
          "type": "uint256"
        }
      ],
      "name": "emergencyPriceUpdate",
      "outputs": [],
      "stateMutability": "nonpayable",
      "type": "function"
    },
    {
      "inputs": [
        {
          "internalType": "address",
          "name": "",
          "type": "address"
        }
      ],
      "name": "holdings",
      "outputs": [
        {
          "internalType": "uint256",
          "name": "",
          "type": "uint256"
        }
      ],
      "stateMutability": "view",
      "type": "function"
    },
    {
      "inputs": [],
      "name": "numTokens",
      "outputs": [
        {
          "internalType": "uint256",
          "name": "",
          "type": "uint256"
        }
      ],
      "stateMutability": "view",
      "type": "function"
    },
    {
      "inputs": [],
      "name": "owner",
      "outputs": [
        {
          "internalType": "address",
          "name": "",
          "type": "address"
        }
      ],
      "stateMutability": "view",
      "type": "function"
    },
    {
      "inputs": [],
      "name": "paused",
      "outputs": [
        {
          "internalType": "bool",
          "name": "",
          "type": "bool"
        }
      ],
      "stateMutability": "view",
      "type": "function"
    },
    {
      "inputs": [],
      "name": "poolFee",
      "outputs": [
        {
          "internalType": "uint24",
          "name": "",
          "type": "uint24"
        }
      ],
      "stateMutability": "view",
      "type": "function"
    },
    {
      "inputs": [
        {
          "internalType": "address",
          "name": "",
          "type": "address"
        }
      ],
      "name": "prices",
      "outputs": [
        {
          "internalType": "uint256",
          "name": "",
          "type": "uint256"
        }
      ],
      "stateMutability": "view",
      "type": "function"
    },
    {
      "inputs": [],
      "name": "renounceOwnership",
      "outputs": [],
      "stateMutability": "nonpayable",
      "type": "function"
    },
    {
      "inputs": [],
      "name": "swapAllDAIForWETH9",
      "outputs": [
        {
          "internalType": "uint256",
          "name": "amountOut",
          "type": "uint256"
        }
      ],
      "stateMutability": "nonpayable",
      "type": "function"
    },
    {
      "inputs": [],
      "name": "swapAllWETH9ForDAI",
      "outputs": [
        {
          "internalType": "uint256",
          "name": "amountOut",
          "type": "uint256"
        }
      ],
      "stateMutability": "nonpayable",
      "type": "function"
    },
    {
      "inputs": [],
      "name": "swapRouter",
      "outputs": [
        {
          "internalType": "contract ISwapRouter",
          "name": "",
          "type": "address"
        }
      ],
      "stateMutability": "view",
      "type": "function"
    },
    {
      "inputs": [
        {
          "internalType": "uint256",
          "name": "",
          "type": "uint256"
        }
      ],
      "name": "tokenHolders",
      "outputs": [
        {
          "internalType": "address",
          "name": "",
          "type": "address"
        }
      ],
      "stateMutability": "view",
      "type": "function"
    },
    {
      "inputs": [],
      "name": "tokenPrice",
      "outputs": [
        {
          "internalType": "uint256",
          "name": "",
          "type": "uint256"
        }
      ],
      "stateMutability": "view",
      "type": "function"
    },
    {
      "inputs": [
        {
          "internalType": "uint256",
          "name": "amount",
          "type": "uint256"
        }
      ],
      "name": "transferFrom",
      "outputs": [],
      "stateMutability": "nonpayable",
      "type": "function"
    },
    {
      "inputs": [
        {
          "internalType": "address",
          "name": "newOwner",
          "type": "address"
        }
      ],
      "name": "transferOwnership",
      "outputs": [],
      "stateMutability": "nonpayable",
      "type": "function"
    },
    {
      "inputs": [],
      "name": "withdrawAllDAI",
      "outputs": [],
      "stateMutability": "nonpayable",
      "type": "function"
    },
    {
      "inputs": [],
      "name": "withdrawAllWETH9",
      "outputs": [],
      "stateMutability": "nonpayable",
      "type": "function"
    }
  ],
  "bytecode": "0x61010060405260006007553480156200001757600080fd5b50604051620029b7380380620029b783398181016040528101906200003d9190620002e3565b60008060006101000a81548160ff021916908315150217905550600180819055506200007e62000072620001fe60201b60201c565b6200020660201b60201c565b8073ffffffffffffffffffffffffffffffffffffffff1660808173ffffffffffffffffffffffffffffffffffffffff1660601b815250508373ffffffffffffffffffffffffffffffffffffffff1660e08173ffffffffffffffffffffffffffffffffffffffff1660601b815250508173ffffffffffffffffffffffffffffffffffffffff1660a08173ffffffffffffffffffffffffffffffffffffffff1660601b815250508273ffffffffffffffffffffffffffffffffffffffff1660c08173ffffffffffffffffffffffffffffffffffffffff1660601b815250506001600460008673ffffffffffffffffffffffffffffffffffffffff1673ffffffffffffffffffffffffffffffffffffffff16815260200190815260200160002081905550610bb8600460008573ffffffffffffffffffffffffffffffffffffffff1673ffffffffffffffffffffffffffffffffffffffff16815260200190815260200160002081905550678ac7230489e80000600681905550505050506200039d565b600033905090565b6000600260009054906101000a900473ffffffffffffffffffffffffffffffffffffffff16905081600260006101000a81548173ffffffffffffffffffffffffffffffffffffffff021916908373ffffffffffffffffffffffffffffffffffffffff1602179055508173ffffffffffffffffffffffffffffffffffffffff168173ffffffffffffffffffffffffffffffffffffffff167f8be0079c531659141344cd1fd0a4f28419497f9722a3daafe3b4186f6b6457e060405160405180910390a35050565b600081519050620002dd8162000383565b92915050565b60008060008060808587031215620002fa57600080fd5b60006200030a87828801620002cc565b94505060206200031d87828801620002cc565b93505060406200033087828801620002cc565b92505060606200034387828801620002cc565b91505092959194509250565b60006200035c8262000363565b9050919050565b600073ffffffffffffffffffffffffffffffffffffffff82169050919050565b6200038e816200034f565b81146200039a57600080fd5b50565b60805160601c60a05160601c60c05160601c60e05160601c61256462000453600039600081816104470152818161051901528181610b0501528181610cae01528181610e9601528181610f1c01528181611368015261140a0152600081816104680152818161097801528181610a3f01528181610d7601528181610e750152818161130301526113cf01526000818161099c0152610d12015260008181610ec8015281816110ca015261119c01526125646000f3fe608060405234801561001057600080fd5b50600436106101375760003560e01c80637ff9b596116100b8578063a335c0081161007c578063a335c008146102ce578063c31c9c07146102ec578063cfed246b1461030a578063dd3ced631461033a578063e0bab4c41461036a578063f2fde38b1461038857610137565b80637ff9b596146102285780638da5cb5b146102465780638e499bcf14610264578063923108d9146102825780639f42fb4b146102b257610137565b80634dede3de116100ff5780634dede3de146101bc57806358bb20d0146101da5780635c975abb146101e4578063715018a61461020257806377a11f7e1461020c57610137565b8063089fe6aa1461013c5780632828b4931461015a5780633c61a02d1461017857806347e7ef24146101825780634aa4a4fc1461019e575b600080fd5b6101446103a4565b60405161015191906120b2565b60405180910390f35b6101626103aa565b60405161016f91906120cd565b60405180910390f35b610180610498565b005b61019c600480360381019061019791906119f6565b61053f565b005b6101a6610976565b6040516101b39190611ebc565b60405180910390f35b6101c461099a565b6040516101d19190611ebc565b60405180910390f35b6101e26109be565b005b6101ec610a65565b6040516101f99190611f60565b60405180910390f35b61020a610a7b565b005b61022660048036038101906102219190611a5b565b610b03565b005b610230610bb6565b60405161023d91906120cd565b60405180910390f35b61024e610bbc565b60405161025b9190611ebc565b60405180910390f35b61026c610be6565b60405161027991906120cd565b60405180910390f35b61029c60048036038101906102979190611a5b565b610bec565b6040516102a99190611ebc565b60405180910390f35b6102cc60048036038101906102c79190611aad565b610c2b565b005b6102d6610dd8565b6040516102e391906120cd565b60405180910390f35b6102f4610ec6565b6040516103019190611f7b565b60405180910390f35b610324600480360381019061031f91906119cd565b610eea565b60405161033191906120cd565b60405180910390f35b610354600480360381019061034f91906119cd565b610f02565b60405161036191906120cd565b60405180910390f35b610372610f1a565b60405161037f9190611ebc565b60405180910390f35b6103a2600480360381019061039d91906119cd565b610f3e565b005b610bb881565b60006103b4610a65565b156103f4576040517f08c379a00000000000000000000000000000000000000000000000000000000081526004016103eb90612016565b60405180910390fd5b6002600154141561043a576040517f08c379a000000000000000000000000000000000000000000000000000000000815260040161043190612076565b60405180910390fd5b600260018190555061048c7f00000000000000000000000000000000000000000000000000000000000000007f0000000000000000000000000000000000000000000000000000000000000000611036565b90506001808190555090565b6104a061124f565b73ffffffffffffffffffffffffffffffffffffffff166104be610bbc565b73ffffffffffffffffffffffffffffffffffffffff1614610514576040517f08c379a000000000000000000000000000000000000000000000000000000000815260040161050b90612036565b60405180910390fd5b61053d7f0000000000000000000000000000000000000000000000000000000000000000611257565b565b610547610a65565b15610587576040517f08c379a000000000000000000000000000000000000000000000000000000000815260040161057e90612016565b60405180910390fd5b600260015414156105cd576040517f08c379a00000000000000000000000000000000000000000000000000000000081526004016105c490612076565b60405180910390fd5b6002600181905550600082905060008173ffffffffffffffffffffffffffffffffffffffff1663dd62ed3e33306040518363ffffffff1660e01b8152600401610617929190611ed7565b60206040518083038186803b15801561062f57600080fd5b505afa158015610643573d6000803e3d6000fd5b505050506040513d601f19601f820116820180604052508101906106679190611a84565b90508281116106ab576040517f08c379a00000000000000000000000000000000000000000000000000000000081526004016106a290611fd6565b60405180910390fd5b6106b36112fa565b6106bb6113c7565b60008273ffffffffffffffffffffffffffffffffffffffff1663313ce5676040518163ffffffff1660e01b815260040160206040518083038186803b15801561070357600080fd5b505afa158015610717573d6000803e3d6000fd5b505050506040513d601f19601f8201168201806040525081019061073b9190611afc565b600a6107479190612234565b905060008185600460008973ffffffffffffffffffffffffffffffffffffffff1673ffffffffffffffffffffffffffffffffffffffff168152602001908152602001600020546107979190612352565b6107a19190612165565b9050600060065483836107b49190612352565b6107be9190612165565b90506003339080600181540180825580915050600190039060005260206000200160009091909190916101000a81548173ffffffffffffffffffffffffffffffffffffffff021916908373ffffffffffffffffffffffffffffffffffffffff16021790555080600560003373ffffffffffffffffffffffffffffffffffffffff1673ffffffffffffffffffffffffffffffffffffffff1681526020019081526020016000206000828254610872919061210f565b92505081905550806007600082825461088b919061210f565b9250508190555060008573ffffffffffffffffffffffffffffffffffffffff166323b872dd33308a6040518463ffffffff1660e01b81526004016108d193929190611f00565b602060405180830381600087803b1580156108eb57600080fd5b505af11580156108ff573d6000803e3d6000fd5b505050506040513d601f19601f820116820180604052508101906109239190611a32565b905080610965576040517f08c379a000000000000000000000000000000000000000000000000000000000815260040161095c90611ff6565b60405180910390fd5b505050505050600180819055505050565b7f000000000000000000000000000000000000000000000000000000000000000081565b7f000000000000000000000000000000000000000000000000000000000000000081565b6109c661124f565b73ffffffffffffffffffffffffffffffffffffffff166109e4610bbc565b73ffffffffffffffffffffffffffffffffffffffff1614610a3a576040517f08c379a0000000000000000000000000000000000000000000000000000000008152600401610a3190612036565b60405180910390fd5b610a637f0000000000000000000000000000000000000000000000000000000000000000611257565b565b60008060009054906101000a900460ff16905090565b610a8361124f565b73ffffffffffffffffffffffffffffffffffffffff16610aa1610bbc565b73ffffffffffffffffffffffffffffffffffffffff1614610af7576040517f08c379a0000000000000000000000000000000000000000000000000000000008152600401610aee90612036565b60405180910390fd5b610b016000611461565b565b7f000000000000000000000000000000000000000000000000000000000000000073ffffffffffffffffffffffffffffffffffffffff166323b872dd3330846040518463ffffffff1660e01b8152600401610b6093929190611f00565b602060405180830381600087803b158015610b7a57600080fd5b505af1158015610b8e573d6000803e3d6000fd5b505050506040513d601f19601f82011682018060405250810190610bb29190611a32565b5050565b60065481565b6000600260009054906101000a900473ffffffffffffffffffffffffffffffffffffffff16905090565b60075481565b60038181548110610bfc57600080fd5b906000526020600020016000915054906101000a900473ffffffffffffffffffffffffffffffffffffffff1681565b610c3361124f565b73ffffffffffffffffffffffffffffffffffffffff16610c51610bbc565b73ffffffffffffffffffffffffffffffffffffffff1614610ca7576040517f08c379a0000000000000000000000000000000000000000000000000000000008152600401610c9e90612036565b60405180910390fd5b82600460007f000000000000000000000000000000000000000000000000000000000000000073ffffffffffffffffffffffffffffffffffffffff1673ffffffffffffffffffffffffffffffffffffffff1681526020019081526020016000208190555081600460007f000000000000000000000000000000000000000000000000000000000000000073ffffffffffffffffffffffffffffffffffffffff1673ffffffffffffffffffffffffffffffffffffffff1681526020019081526020016000208190555080600460007f000000000000000000000000000000000000000000000000000000000000000073ffffffffffffffffffffffffffffffffffffffff1673ffffffffffffffffffffffffffffffffffffffff16815260200190815260200160002081905550505050565b6000610de2610a65565b15610e22576040517f08c379a0000000000000000000000000000000000000000000000000000000008152600401610e1990612016565b60405180910390fd5b60026001541415610e68576040517f08c379a0000000000000000000000000000000000000000000000000000000008152600401610e5f90612076565b60405180910390fd5b6002600181905550610eba7f00000000000000000000000000000000000000000000000000000000000000007f0000000000000000000000000000000000000000000000000000000000000000611036565b90506001808190555090565b7f000000000000000000000000000000000000000000000000000000000000000081565b60046020528060005260406000206000915090505481565b60056020528060005260406000206000915090505481565b7f000000000000000000000000000000000000000000000000000000000000000081565b610f4661124f565b73ffffffffffffffffffffffffffffffffffffffff16610f64610bbc565b73ffffffffffffffffffffffffffffffffffffffff1614610fba576040517f08c379a0000000000000000000000000000000000000000000000000000000008152600401610fb190612036565b60405180910390fd5b600073ffffffffffffffffffffffffffffffffffffffff168173ffffffffffffffffffffffffffffffffffffffff16141561102a576040517f08c379a000000000000000000000000000000000000000000000000000000000815260040161102190611fb6565b60405180910390fd5b61103381611461565b50565b6000808373ffffffffffffffffffffffffffffffffffffffff166370a08231306040518263ffffffff1660e01b81526004016110729190611ebc565b60206040518083038186803b15801561108a57600080fd5b505afa15801561109e573d6000803e3d6000fd5b505050506040513d601f19601f820116820180604052508101906110c29190611a84565b90506110ef847f000000000000000000000000000000000000000000000000000000000000000083611527565b60006040518061010001604052808673ffffffffffffffffffffffffffffffffffffffff1681526020018573ffffffffffffffffffffffffffffffffffffffff168152602001610bb862ffffff1681526020013073ffffffffffffffffffffffffffffffffffffffff16815260200160644261116b919061210f565b815260200183815260200160008152602001600073ffffffffffffffffffffffffffffffffffffffff1681525090507f000000000000000000000000000000000000000000000000000000000000000073ffffffffffffffffffffffffffffffffffffffff1663414bf389826040518263ffffffff1660e01b81526004016111f39190612096565b602060405180830381600087803b15801561120d57600080fd5b505af1158015611221573d6000803e3d6000fd5b505050506040513d601f19601f820116820180604052508101906112459190611a84565b9250505092915050565b600033905090565b600081905060008173ffffffffffffffffffffffffffffffffffffffff166370a08231306040518263ffffffff1660e01b81526004016112979190611ebc565b60206040518083038186803b1580156112af57600080fd5b505afa1580156112c3573d6000803e3d6000fd5b505050506040513d601f19601f820116820180604052508101906112e79190611a84565b90506112f58330338461167c565b505050565b610bb8600460007f000000000000000000000000000000000000000000000000000000000000000073ffffffffffffffffffffffffffffffffffffffff1673ffffffffffffffffffffffffffffffffffffffff168152602001908152602001600020819055506001600460007f000000000000000000000000000000000000000000000000000000000000000073ffffffffffffffffffffffffffffffffffffffff1673ffffffffffffffffffffffffffffffffffffffff16815260200190815260200160002081905550565b6000806113f37f00000000000000000000000000000000000000000000000000000000000000006117d4565b90508082611401919061210f565b9150600061142e7f00000000000000000000000000000000000000000000000000000000000000006117d4565b9050808361143c919061210f565b9250600083111561145c57600754836114559190612165565b6006819055505b505050565b6000600260009054906101000a900473ffffffffffffffffffffffffffffffffffffffff16905081600260006101000a81548173ffffffffffffffffffffffffffffffffffffffff021916908373ffffffffffffffffffffffffffffffffffffffff1602179055508173ffffffffffffffffffffffffffffffffffffffff168173ffffffffffffffffffffffffffffffffffffffff167f8be0079c531659141344cd1fd0a4f28419497f9722a3daafe3b4186f6b6457e060405160405180910390a35050565b6000808473ffffffffffffffffffffffffffffffffffffffff1663095ea7b360e01b858560405160240161155c929190611f37565b604051602081830303815290604052907bffffffffffffffffffffffffffffffffffffffffffffffffffffffff19166020820180517bffffffffffffffffffffffffffffffffffffffffffffffffffffffff83818316178352505050506040516115c69190611ea5565b6000604051808303816000865af19150503d8060008114611603576040519150601f19603f3d011682016040523d82523d6000602084013e611608565b606091505b509150915081801561163657506000815114806116355750808060200190518101906116349190611a32565b5b5b611675576040517f08c379a000000000000000000000000000000000000000000000000000000000815260040161166c90611f96565b60405180910390fd5b5050505050565b6000808573ffffffffffffffffffffffffffffffffffffffff166323b872dd60e01b8686866040516024016116b393929190611f00565b604051602081830303815290604052907bffffffffffffffffffffffffffffffffffffffffffffffffffffffff19166020820180517bffffffffffffffffffffffffffffffffffffffffffffffffffffffff838183161783525050505060405161171d9190611ea5565b6000604051808303816000865af19150503d806000811461175a576040519150601f19603f3d011682016040523d82523d6000602084013e61175f565b606091505b509150915081801561178d575060008151148061178c57508080602001905181019061178b9190611a32565b5b5b6117cc576040517f08c379a00000000000000000000000000000000000000000000000000000000081526004016117c390612056565b60405180910390fd5b505050505050565b60008082905060008173ffffffffffffffffffffffffffffffffffffffff166370a08231306040518263ffffffff1660e01b81526004016118159190611ebc565b60206040518083038186803b15801561182d57600080fd5b505afa158015611841573d6000803e3d6000fd5b505050506040513d601f19601f820116820180604052508101906118659190611a84565b90506000600460008673ffffffffffffffffffffffffffffffffffffffff1673ffffffffffffffffffffffffffffffffffffffff16815260200190815260200160002054905060008373ffffffffffffffffffffffffffffffffffffffff1663313ce5676040518163ffffffff1660e01b815260040160206040518083038186803b1580156118f357600080fd5b505afa158015611907573d6000803e3d6000fd5b505050506040513d601f19601f8201168201806040525081019061192b9190611afc565b60ff16905060008282600a61194091906121e9565b8561194b9190612165565b6119559190612352565b90508095505050505050919050565b600081359050611973816124d2565b92915050565b600081519050611988816124e9565b92915050565b60008135905061199d81612500565b92915050565b6000815190506119b281612500565b92915050565b6000815190506119c781612517565b92915050565b6000602082840312156119df57600080fd5b60006119ed84828501611964565b91505092915050565b60008060408385031215611a0957600080fd5b6000611a1785828601611964565b9250506020611a288582860161198e565b9150509250929050565b600060208284031215611a4457600080fd5b6000611a5284828501611979565b91505092915050565b600060208284031215611a6d57600080fd5b6000611a7b8482850161198e565b91505092915050565b600060208284031215611a9657600080fd5b6000611aa4848285016119a3565b91505092915050565b600080600060608486031215611ac257600080fd5b6000611ad08682870161198e565b9350506020611ae18682870161198e565b9250506040611af28682870161198e565b9150509250925092565b600060208284031215611b0e57600080fd5b6000611b1c848285016119b8565b91505092915050565b611b2e816123ac565b82525050565b611b3d816123ac565b82525050565b611b4c816123be565b82525050565b6000611b5d826120e8565b611b6781856120f3565b9350611b77818560208601612434565b80840191505092915050565b611b8c81612410565b82525050565b6000611b9f6002836120fe565b91507f53410000000000000000000000000000000000000000000000000000000000006000830152602082019050919050565b6000611bdf6026836120fe565b91507f4f776e61626c653a206e6577206f776e657220697320746865207a65726f206160008301527f64647265737300000000000000000000000000000000000000000000000000006020830152604082019050919050565b6000611c45601a836120fe565b91507f416c6c6f77616e6365206e6f742070726f7065726c79207365740000000000006000830152602082019050919050565b6000611c856020836120fe565b91507f5472616e73666572206f66206465706f73697420756e7375636365737366756c6000830152602082019050919050565b6000611cc56010836120fe565b91507f5061757361626c653a20706175736564000000000000000000000000000000006000830152602082019050919050565b6000611d056020836120fe565b91507f4f776e61626c653a2063616c6c6572206973206e6f7420746865206f776e65726000830152602082019050919050565b6000611d456003836120fe565b91507f53544600000000000000000000000000000000000000000000000000000000006000830152602082019050919050565b6000611d85601f836120fe565b91507f5265656e7472616e637947756172643a207265656e7472616e742063616c6c006000830152602082019050919050565b61010082016000820151611dcf6000850182611b25565b506020820151611de26020850182611b25565b506040820151611df56040850182611e69565b506060820151611e086060850182611b25565b506080820151611e1b6080850182611e87565b5060a0820151611e2e60a0850182611e87565b5060c0820151611e4160c0850182611e87565b5060e0820151611e5460e0850182611e5a565b50505050565b611e63816123ca565b82525050565b611e72816123ea565b82525050565b611e81816123ea565b82525050565b611e90816123f9565b82525050565b611e9f816123f9565b82525050565b6000611eb18284611b52565b915081905092915050565b6000602082019050611ed16000830184611b34565b92915050565b6000604082019050611eec6000830185611b34565b611ef96020830184611b34565b9392505050565b6000606082019050611f156000830186611b34565b611f226020830185611b34565b611f2f6040830184611e96565b949350505050565b6000604082019050611f4c6000830185611b34565b611f596020830184611e96565b9392505050565b6000602082019050611f756000830184611b43565b92915050565b6000602082019050611f906000830184611b83565b92915050565b60006020820190508181036000830152611faf81611b92565b9050919050565b60006020820190508181036000830152611fcf81611bd2565b9050919050565b60006020820190508181036000830152611fef81611c38565b9050919050565b6000602082019050818103600083015261200f81611c78565b9050919050565b6000602082019050818103600083015261202f81611cb8565b9050919050565b6000602082019050818103600083015261204f81611cf8565b9050919050565b6000602082019050818103600083015261206f81611d38565b9050919050565b6000602082019050818103600083015261208f81611d78565b9050919050565b6000610100820190506120ac6000830184611db8565b92915050565b60006020820190506120c76000830184611e78565b92915050565b60006020820190506120e26000830184611e96565b92915050565b600081519050919050565b600081905092915050565b600082825260208201905092915050565b600061211a826123f9565b9150612125836123f9565b9250827fffffffffffffffffffffffffffffffffffffffffffffffffffffffffffffffff0382111561215a57612159612467565b5b828201905092915050565b6000612170826123f9565b915061217b836123f9565b92508261218b5761218a612496565b5b828204905092915050565b6000808291508390505b60018511156121e0578086048111156121bc576121bb612467565b5b60018516156121cb5780820291505b80810290506121d9856124c5565b94506121a0565b94509492505050565b60006121f4826123f9565b91506121ff836123f9565b925061222c7fffffffffffffffffffffffffffffffffffffffffffffffffffffffffffffffff848461227f565b905092915050565b600061223f826123f9565b915061224a83612403565b92506122777fffffffffffffffffffffffffffffffffffffffffffffffffffffffffffffffff848461227f565b905092915050565b60008261228f576001905061234b565b8161229d576000905061234b565b81600181146122b357600281146122bd576122ec565b600191505061234b565b60ff8411156122cf576122ce612467565b5b8360020a9150848211156122e6576122e5612467565b5b5061234b565b5060208310610133831016604e8410600b84101617156123215782820a90508381111561231c5761231b612467565b5b61234b565b61232e8484846001612196565b9250905081840481111561234557612344612467565b5b81810290505b9392505050565b600061235d826123f9565b9150612368836123f9565b9250817fffffffffffffffffffffffffffffffffffffffffffffffffffffffffffffffff04831182151516156123a1576123a0612467565b5b828202905092915050565b60006123b7826123ca565b9050919050565b60008115159050919050565b600073ffffffffffffffffffffffffffffffffffffffff82169050919050565b600062ffffff82169050919050565b6000819050919050565b600060ff82169050919050565b600061241b82612422565b9050919050565b600061242d826123ca565b9050919050565b60005b83811015612452578082015181840152602081019050612437565b83811115612461576000848401525b50505050565b7f4e487b7100000000000000000000000000000000000000000000000000000000600052601160045260246000fd5b7f4e487b7100000000000000000000000000000000000000000000000000000000600052601260045260246000fd5b60008160011c9050919050565b6124db816123ac565b81146124e657600080fd5b50565b6124f2816123be565b81146124fd57600080fd5b50565b612509816123f9565b811461251457600080fd5b50565b61252081612403565b811461252b57600080fd5b5056fea264697066735822122057c545861277514b509e016c6c903c71481a0c95f4a6f81f8ef7d6f0f2484b9464736f6c63430008000033",
  "linkReferences": {},
  "deployedLinkReferences": {}
}